{
  "_format": "hh-sol-artifact-1",
  "contractName": "NFTcollection",
  "sourceName": "contracts/NFTcollection.sol",
  "abi": [
    {
      "inputs": [],
      "stateMutability": "nonpayable",
      "type": "constructor"
    },
    {
      "anonymous": false,
      "inputs": [
        {
          "indexed": true,
          "internalType": "address",
          "name": "owner",
          "type": "address"
        },
        {
          "indexed": true,
          "internalType": "address",
          "name": "approved",
          "type": "address"
        },
        {
          "indexed": true,
          "internalType": "uint256",
          "name": "tokenId",
          "type": "uint256"
        }
      ],
      "name": "Approval",
      "type": "event"
    },
    {
      "anonymous": false,
      "inputs": [
        {
          "indexed": true,
          "internalType": "address",
          "name": "owner",
          "type": "address"
        },
        {
          "indexed": true,
          "internalType": "address",
          "name": "operator",
          "type": "address"
        },
        {
          "indexed": false,
          "internalType": "bool",
          "name": "approved",
          "type": "bool"
        }
      ],
      "name": "ApprovalForAll",
      "type": "event"
    },
    {
      "anonymous": false,
      "inputs": [
        {
          "indexed": true,
          "internalType": "bytes32",
          "name": "role",
          "type": "bytes32"
        },
        {
          "indexed": true,
          "internalType": "bytes32",
          "name": "previousAdminRole",
          "type": "bytes32"
        },
        {
          "indexed": true,
          "internalType": "bytes32",
          "name": "newAdminRole",
          "type": "bytes32"
        }
      ],
      "name": "RoleAdminChanged",
      "type": "event"
    },
    {
      "anonymous": false,
      "inputs": [
        {
          "indexed": true,
          "internalType": "bytes32",
          "name": "role",
          "type": "bytes32"
        },
        {
          "indexed": true,
          "internalType": "address",
          "name": "account",
          "type": "address"
        },
        {
          "indexed": true,
          "internalType": "address",
          "name": "sender",
          "type": "address"
        }
      ],
      "name": "RoleGranted",
      "type": "event"
    },
    {
      "anonymous": false,
      "inputs": [
        {
          "indexed": true,
          "internalType": "bytes32",
          "name": "role",
          "type": "bytes32"
        },
        {
          "indexed": true,
          "internalType": "address",
          "name": "account",
          "type": "address"
        },
        {
          "indexed": true,
          "internalType": "address",
          "name": "sender",
          "type": "address"
        }
      ],
      "name": "RoleRevoked",
      "type": "event"
    },
    {
      "anonymous": false,
      "inputs": [
        {
          "indexed": true,
          "internalType": "address",
          "name": "from",
          "type": "address"
        },
        {
          "indexed": true,
          "internalType": "address",
          "name": "to",
          "type": "address"
        },
        {
          "indexed": true,
          "internalType": "uint256",
          "name": "tokenId",
          "type": "uint256"
        }
      ],
      "name": "Transfer",
      "type": "event"
    },
    {
      "inputs": [],
      "name": "DEFAULT_ADMIN_ROLE",
      "outputs": [
        {
          "internalType": "bytes32",
          "name": "",
          "type": "bytes32"
        }
      ],
      "stateMutability": "view",
      "type": "function"
    },
    {
      "inputs": [
        {
          "internalType": "address",
          "name": "to",
          "type": "address"
        },
        {
          "internalType": "uint256",
          "name": "tokenId",
          "type": "uint256"
        }
      ],
      "name": "approve",
      "outputs": [],
      "stateMutability": "nonpayable",
      "type": "function"
    },
    {
      "inputs": [
        {
          "internalType": "address",
          "name": "owner",
          "type": "address"
        }
      ],
      "name": "balanceOf",
      "outputs": [
        {
          "internalType": "uint256",
          "name": "",
          "type": "uint256"
        }
      ],
      "stateMutability": "view",
      "type": "function"
    },
    {
      "inputs": [
        {
          "internalType": "uint256",
          "name": "tokenId",
          "type": "uint256"
        }
      ],
      "name": "burn",
      "outputs": [],
      "stateMutability": "nonpayable",
      "type": "function"
    },
    {
      "inputs": [],
      "name": "cost",
      "outputs": [
        {
          "internalType": "uint256",
          "name": "",
          "type": "uint256"
        }
      ],
      "stateMutability": "view",
      "type": "function"
    },
    {
      "inputs": [
        {
          "internalType": "uint256",
          "name": "tokenId",
          "type": "uint256"
        }
      ],
      "name": "getApproved",
      "outputs": [
        {
          "internalType": "address",
          "name": "",
          "type": "address"
        }
      ],
      "stateMutability": "view",
      "type": "function"
    },
    {
      "inputs": [
        {
          "internalType": "bytes32",
          "name": "role",
          "type": "bytes32"
        }
      ],
      "name": "getRoleAdmin",
      "outputs": [
        {
          "internalType": "bytes32",
          "name": "",
          "type": "bytes32"
        }
      ],
      "stateMutability": "view",
      "type": "function"
    },
    {
      "inputs": [
        {
          "internalType": "bytes32",
          "name": "role",
          "type": "bytes32"
        },
        {
          "internalType": "address",
          "name": "account",
          "type": "address"
        }
      ],
      "name": "grantRole",
      "outputs": [],
      "stateMutability": "nonpayable",
      "type": "function"
    },
    {
      "inputs": [
        {
          "internalType": "bytes32",
          "name": "role",
          "type": "bytes32"
        },
        {
          "internalType": "address",
          "name": "account",
          "type": "address"
        }
      ],
      "name": "hasRole",
      "outputs": [
        {
          "internalType": "bool",
          "name": "",
          "type": "bool"
        }
      ],
      "stateMutability": "view",
      "type": "function"
    },
    {
      "inputs": [
        {
          "internalType": "address",
          "name": "owner",
          "type": "address"
        },
        {
          "internalType": "address",
          "name": "operator",
          "type": "address"
        }
      ],
      "name": "isApprovedForAll",
      "outputs": [
        {
          "internalType": "bool",
          "name": "",
          "type": "bool"
        }
      ],
      "stateMutability": "view",
      "type": "function"
    },
    {
      "inputs": [],
      "name": "name",
      "outputs": [
        {
          "internalType": "string",
          "name": "",
          "type": "string"
        }
      ],
      "stateMutability": "view",
      "type": "function"
    },
    {
      "inputs": [
        {
          "internalType": "uint256",
          "name": "tokenId",
          "type": "uint256"
        }
      ],
      "name": "ownerOf",
      "outputs": [
        {
          "internalType": "address",
          "name": "",
          "type": "address"
        }
      ],
      "stateMutability": "view",
      "type": "function"
    },
    {
      "inputs": [
        {
          "internalType": "bytes32",
          "name": "role",
          "type": "bytes32"
        },
        {
          "internalType": "address",
          "name": "account",
          "type": "address"
        }
      ],
      "name": "renounceRole",
      "outputs": [],
      "stateMutability": "nonpayable",
      "type": "function"
    },
    {
      "inputs": [
        {
          "internalType": "bytes32",
          "name": "role",
          "type": "bytes32"
        },
        {
          "internalType": "address",
          "name": "account",
          "type": "address"
        }
      ],
      "name": "revokeRole",
      "outputs": [],
      "stateMutability": "nonpayable",
      "type": "function"
    },
    {
      "inputs": [
        {
          "internalType": "address",
          "name": "to",
          "type": "address"
        }
      ],
      "name": "safeMint",
      "outputs": [],
      "stateMutability": "payable",
      "type": "function"
    },
    {
      "inputs": [
        {
          "internalType": "address",
          "name": "from",
          "type": "address"
        },
        {
          "internalType": "address",
          "name": "to",
          "type": "address"
        },
        {
          "internalType": "uint256",
          "name": "tokenId",
          "type": "uint256"
        }
      ],
      "name": "safeTransferFrom",
      "outputs": [],
      "stateMutability": "nonpayable",
      "type": "function"
    },
    {
      "inputs": [
        {
          "internalType": "address",
          "name": "from",
          "type": "address"
        },
        {
          "internalType": "address",
          "name": "to",
          "type": "address"
        },
        {
          "internalType": "uint256",
          "name": "tokenId",
          "type": "uint256"
        },
        {
          "internalType": "bytes",
          "name": "data",
          "type": "bytes"
        }
      ],
      "name": "safeTransferFrom",
      "outputs": [],
      "stateMutability": "nonpayable",
      "type": "function"
    },
    {
      "inputs": [
        {
          "internalType": "address",
          "name": "operator",
          "type": "address"
        },
        {
          "internalType": "bool",
          "name": "approved",
          "type": "bool"
        }
      ],
      "name": "setApprovalForAll",
      "outputs": [],
      "stateMutability": "nonpayable",
      "type": "function"
    },
    {
      "inputs": [
        {
          "internalType": "uint256",
          "name": "_tokenId",
          "type": "uint256"
        },
        {
          "internalType": "string",
          "name": "_tokenURI",
          "type": "string"
        }
      ],
      "name": "setTokenURI",
      "outputs": [],
      "stateMutability": "nonpayable",
      "type": "function"
    },
    {
      "inputs": [
        {
          "internalType": "bytes4",
          "name": "interfaceId",
          "type": "bytes4"
        }
      ],
      "name": "supportsInterface",
      "outputs": [
        {
          "internalType": "bool",
          "name": "",
          "type": "bool"
        }
      ],
      "stateMutability": "view",
      "type": "function"
    },
    {
      "inputs": [],
      "name": "symbol",
      "outputs": [
        {
          "internalType": "string",
          "name": "",
          "type": "string"
        }
      ],
      "stateMutability": "view",
      "type": "function"
    },
    {
      "inputs": [],
      "name": "tokenId",
      "outputs": [
        {
          "internalType": "uint256",
          "name": "",
          "type": "uint256"
        }
      ],
      "stateMutability": "view",
      "type": "function"
    },
    {
      "inputs": [
        {
          "internalType": "uint256",
          "name": "_tokenId",
          "type": "uint256"
        }
      ],
      "name": "tokenURI",
      "outputs": [
        {
          "internalType": "string",
          "name": "",
          "type": "string"
        }
      ],
      "stateMutability": "view",
      "type": "function"
    },
    {
      "inputs": [
        {
          "internalType": "address",
          "name": "from",
          "type": "address"
        },
        {
          "internalType": "address",
          "name": "to",
          "type": "address"
        },
        {
          "internalType": "uint256",
          "name": "tokenId",
          "type": "uint256"
        }
      ],
      "name": "transferFrom",
      "outputs": [],
      "stateMutability": "nonpayable",
      "type": "function"
    }
  ],
  "bytecode": "0x608060405264174876e80060075560006008553480156200001f57600080fd5b506040518060400160405280600d81526020017f43727970746f4c617361676e61000000000000000000000000000000000000008152506040518060400160405280600381526020017f4c534700000000000000000000000000000000000000000000000000000000008152508160009080519060200190620000a492919062000240565b508060019080519060200190620000bd92919062000240565b505050620000d56000801b33620000db60201b60201c565b62000355565b620000ed8282620001cd60201b60201c565b620001c95760016006600084815260200190815260200160002060000160008373ffffffffffffffffffffffffffffffffffffffff1673ffffffffffffffffffffffffffffffffffffffff16815260200190815260200160002060006101000a81548160ff0219169083151502179055506200016e6200023860201b60201c565b73ffffffffffffffffffffffffffffffffffffffff168173ffffffffffffffffffffffffffffffffffffffff16837f2f8788117e7eff1d82e926ec794901d17c78024a50270940304540a733656f0d60405160405180910390a45b5050565b60006006600084815260200190815260200160002060000160008373ffffffffffffffffffffffffffffffffffffffff1673ffffffffffffffffffffffffffffffffffffffff16815260200190815260200160002060009054906101000a900460ff16905092915050565b600033905090565b8280546200024e906200031f565b90600052602060002090601f016020900481019282620002725760008555620002be565b82601f106200028d57805160ff1916838001178555620002be565b82800160010185558215620002be579182015b82811115620002bd578251825591602001919060010190620002a0565b5b509050620002cd9190620002d1565b5090565b5b80821115620002ec576000816000905550600101620002d2565b5090565b7f4e487b7100000000000000000000000000000000000000000000000000000000600052602260045260246000fd5b600060028204905060018216806200033857607f821691505b602082108114156200034f576200034e620002f0565b5b50919050565b61348380620003656000396000f3fe60806040526004361061014b5760003560e01c806342842e0e116100b6578063a217fddf1161006f578063a217fddf146104a5578063a22cb465146104d0578063b88d4fde146104f9578063c87b56dd14610522578063d547741f1461055f578063e985e9c5146105885761014b565b806342842e0e1461037157806342966c681461039a5780636352211e146103c357806370a082311461040057806391d148541461043d57806395d89b411461047a5761014b565b806317d70f7c1161010857806317d70f7c1461027257806323b872dd1461029d578063248a9ca3146102c65780632f2ff15d1461030357806336568abe1461032c57806340d097c3146103555761014b565b806301ffc9a71461015057806306fdde031461018d578063081812fc146101b8578063095ea7b3146101f557806313faede61461021e578063162094c414610249575b600080fd5b34801561015c57600080fd5b506101776004803603810190610172919061219e565b6105c5565b60405161018491906121e6565b60405180910390f35b34801561019957600080fd5b506101a26105d7565b6040516101af919061229a565b60405180910390f35b3480156101c457600080fd5b506101df60048036038101906101da91906122f2565b610669565b6040516101ec9190612360565b60405180910390f35b34801561020157600080fd5b5061021c600480360381019061021791906123a7565b6106af565b005b34801561022a57600080fd5b506102336107c7565b60405161024091906123f6565b60405180910390f35b34801561025557600080fd5b50610270600480360381019061026b9190612546565b6107cd565b005b34801561027e57600080fd5b50610287610841565b60405161029491906123f6565b60405180910390f35b3480156102a957600080fd5b506102c460048036038101906102bf91906125a2565b610847565b005b3480156102d257600080fd5b506102ed60048036038101906102e8919061262b565b6108a7565b6040516102fa9190612667565b60405180910390f35b34801561030f57600080fd5b5061032a60048036038101906103259190612682565b6108c7565b005b34801561033857600080fd5b50610353600480360381019061034e9190612682565b6108e8565b005b61036f600480360381019061036a91906126c2565b61096b565b005b34801561037d57600080fd5b50610398600480360381019061039391906125a2565b61099e565b005b3480156103a657600080fd5b506103c160048036038101906103bc91906122f2565b6109be565b005b3480156103cf57600080fd5b506103ea60048036038101906103e591906122f2565b610a1a565b6040516103f79190612360565b60405180910390f35b34801561040c57600080fd5b50610427600480360381019061042291906126c2565b610acc565b60405161043491906123f6565b60405180910390f35b34801561044957600080fd5b50610464600480360381019061045f9190612682565b610b84565b60405161047191906121e6565b60405180910390f35b34801561048657600080fd5b5061048f610bef565b60405161049c919061229a565b60405180910390f35b3480156104b157600080fd5b506104ba610c81565b6040516104c79190612667565b60405180910390f35b3480156104dc57600080fd5b506104f760048036038101906104f2919061271b565b610c88565b005b34801561050557600080fd5b50610520600480360381019061051b91906127fc565b610c9e565b005b34801561052e57600080fd5b50610549600480360381019061054491906122f2565b610d00565b604051610556919061229a565b60405180910390f35b34801561056b57600080fd5b5061058660048036038101906105819190612682565b610df3565b005b34801561059457600080fd5b506105af60048036038101906105aa919061287f565b610e14565b6040516105bc91906121e6565b60405180910390f35b60006105d082610ea8565b9050919050565b6060600080546105e6906128ee565b80601f0160208091040260200160405190810160405280929190818152602001828054610612906128ee565b801561065f5780601f106106345761010080835404028352916020019161065f565b820191906000526020600020905b81548152906001019060200180831161064257829003601f168201915b5050505050905090565b600061067482610f22565b6004600083815260200190815260200160002060009054906101000a900473ffffffffffffffffffffffffffffffffffffffff169050919050565b60006106ba82610a1a565b90508073ffffffffffffffffffffffffffffffffffffffff168373ffffffffffffffffffffffffffffffffffffffff16141561072b576040517f08c379a000000000000000000000000000000000000000000000000000000000815260040161072290612992565b60405180910390fd5b8073ffffffffffffffffffffffffffffffffffffffff1661074a610f6d565b73ffffffffffffffffffffffffffffffffffffffff161480610779575061077881610773610f6d565b610e14565b5b6107b8576040517f08c379a00000000000000000000000000000000000000000000000000000000081526004016107af90612a24565b60405180910390fd5b6107c28383610f75565b505050565b60075481565b6107d68261102e565b610815576040517f08c379a000000000000000000000000000000000000000000000000000000000815260040161080c90612ab6565b60405180910390fd5b8060096000848152602001908152602001600020908051906020019061083c92919061208f565b505050565b60085481565b610858610852610f6d565b8261109a565b610897576040517f08c379a000000000000000000000000000000000000000000000000000000000815260040161088e90612b48565b60405180910390fd5b6108a283838361112f565b505050565b600060066000838152602001908152602001600020600101549050919050565b6108d0826108a7565b6108d981611396565b6108e383836113aa565b505050565b6108f0610f6d565b73ffffffffffffffffffffffffffffffffffffffff168173ffffffffffffffffffffffffffffffffffffffff161461095d576040517f08c379a000000000000000000000000000000000000000000000000000000000815260040161095490612bda565b60405180910390fd5b610967828261148b565b5050565b60075434101561097a57600080fd5b60016008546109899190612c29565b60088190555061099b8160085461156d565b50565b6109b983838360405180602001604052806000815250610c9e565b505050565b6109cf6109c9610f6d565b8261109a565b610a0e576040517f08c379a0000000000000000000000000000000000000000000000000000000008152600401610a0590612b48565b60405180910390fd5b610a178161158b565b50565b6000806002600084815260200190815260200160002060009054906101000a900473ffffffffffffffffffffffffffffffffffffffff169050600073ffffffffffffffffffffffffffffffffffffffff168173ffffffffffffffffffffffffffffffffffffffff161415610ac3576040517f08c379a0000000000000000000000000000000000000000000000000000000008152600401610aba90612ccb565b60405180910390fd5b80915050919050565b60008073ffffffffffffffffffffffffffffffffffffffff168273ffffffffffffffffffffffffffffffffffffffff161415610b3d576040517f08c379a0000000000000000000000000000000000000000000000000000000008152600401610b3490612d5d565b60405180910390fd5b600360008373ffffffffffffffffffffffffffffffffffffffff1673ffffffffffffffffffffffffffffffffffffffff168152602001908152602001600020549050919050565b60006006600084815260200190815260200160002060000160008373ffffffffffffffffffffffffffffffffffffffff1673ffffffffffffffffffffffffffffffffffffffff16815260200190815260200160002060009054906101000a900460ff16905092915050565b606060018054610bfe906128ee565b80601f0160208091040260200160405190810160405280929190818152602001828054610c2a906128ee565b8015610c775780601f10610c4c57610100808354040283529160200191610c77565b820191906000526020600020905b815481529060010190602001808311610c5a57829003601f168201915b5050505050905090565b6000801b81565b610c9a610c93610f6d565b83836116a8565b5050565b610caf610ca9610f6d565b8361109a565b610cee576040517f08c379a0000000000000000000000000000000000000000000000000000000008152600401610ce590612b48565b60405180910390fd5b610cfa84848484611815565b50505050565b6060610d0b8261102e565b610d4a576040517f08c379a0000000000000000000000000000000000000000000000000000000008152600401610d4190612def565b60405180910390fd5b6000600960008481526020019081526020016000208054610d6a906128ee565b80601f0160208091040260200160405190810160405280929190818152602001828054610d96906128ee565b8015610de35780601f10610db857610100808354040283529160200191610de3565b820191906000526020600020905b815481529060010190602001808311610dc657829003601f168201915b5050505050905080915050919050565b610dfc826108a7565b610e0581611396565b610e0f838361148b565b505050565b6000600560008473ffffffffffffffffffffffffffffffffffffffff1673ffffffffffffffffffffffffffffffffffffffff16815260200190815260200160002060008373ffffffffffffffffffffffffffffffffffffffff1673ffffffffffffffffffffffffffffffffffffffff16815260200190815260200160002060009054906101000a900460ff16905092915050565b60007f7965db0b000000000000000000000000000000000000000000000000000000007bffffffffffffffffffffffffffffffffffffffffffffffffffffffff1916827bffffffffffffffffffffffffffffffffffffffffffffffffffffffff19161480610f1b5750610f1a82611871565b5b9050919050565b610f2b8161102e565b610f6a576040517f08c379a0000000000000000000000000000000000000000000000000000000008152600401610f6190612ccb565b60405180910390fd5b50565b600033905090565b816004600083815260200190815260200160002060006101000a81548173ffffffffffffffffffffffffffffffffffffffff021916908373ffffffffffffffffffffffffffffffffffffffff160217905550808273ffffffffffffffffffffffffffffffffffffffff16610fe883610a1a565b73ffffffffffffffffffffffffffffffffffffffff167f8c5be1e5ebec7d5bd14f71427d1e84f3dd0314c0f7b2291e5b200ac8c7c3b92560405160405180910390a45050565b60008073ffffffffffffffffffffffffffffffffffffffff166002600084815260200190815260200160002060009054906101000a900473ffffffffffffffffffffffffffffffffffffffff1673ffffffffffffffffffffffffffffffffffffffff1614159050919050565b6000806110a683610a1a565b90508073ffffffffffffffffffffffffffffffffffffffff168473ffffffffffffffffffffffffffffffffffffffff1614806110e857506110e78185610e14565b5b8061112657508373ffffffffffffffffffffffffffffffffffffffff1661110e84610669565b73ffffffffffffffffffffffffffffffffffffffff16145b91505092915050565b8273ffffffffffffffffffffffffffffffffffffffff1661114f82610a1a565b73ffffffffffffffffffffffffffffffffffffffff16146111a5576040517f08c379a000000000000000000000000000000000000000000000000000000000815260040161119c90612e81565b60405180910390fd5b600073ffffffffffffffffffffffffffffffffffffffff168273ffffffffffffffffffffffffffffffffffffffff161415611215576040517f08c379a000000000000000000000000000000000000000000000000000000000815260040161120c90612f13565b60405180910390fd5b611220838383611953565b61122b600082610f75565b6001600360008573ffffffffffffffffffffffffffffffffffffffff1673ffffffffffffffffffffffffffffffffffffffff168152602001908152602001600020600082825461127b9190612f33565b925050819055506001600360008473ffffffffffffffffffffffffffffffffffffffff1673ffffffffffffffffffffffffffffffffffffffff16815260200190815260200160002060008282546112d29190612c29565b92505081905550816002600083815260200190815260200160002060006101000a81548173ffffffffffffffffffffffffffffffffffffffff021916908373ffffffffffffffffffffffffffffffffffffffff160217905550808273ffffffffffffffffffffffffffffffffffffffff168473ffffffffffffffffffffffffffffffffffffffff167fddf252ad1be2c89b69c2b068fc378daa952ba7f163c4a11628f55a4df523b3ef60405160405180910390a4611391838383611958565b505050565b6113a7816113a2610f6d565b61195d565b50565b6113b48282610b84565b6114875760016006600084815260200190815260200160002060000160008373ffffffffffffffffffffffffffffffffffffffff1673ffffffffffffffffffffffffffffffffffffffff16815260200190815260200160002060006101000a81548160ff02191690831515021790555061142c610f6d565b73ffffffffffffffffffffffffffffffffffffffff168173ffffffffffffffffffffffffffffffffffffffff16837f2f8788117e7eff1d82e926ec794901d17c78024a50270940304540a733656f0d60405160405180910390a45b5050565b6114958282610b84565b156115695760006006600084815260200190815260200160002060000160008373ffffffffffffffffffffffffffffffffffffffff1673ffffffffffffffffffffffffffffffffffffffff16815260200190815260200160002060006101000a81548160ff02191690831515021790555061150e610f6d565b73ffffffffffffffffffffffffffffffffffffffff168173ffffffffffffffffffffffffffffffffffffffff16837ff6391f5c32d9c69d2a47ea670b442974b53935d1edc7fd64eb21e047a839171b60405160405180910390a45b5050565b6115878282604051806020016040528060008152506119fa565b5050565b600061159682610a1a565b90506115a481600084611953565b6115af600083610f75565b6001600360008373ffffffffffffffffffffffffffffffffffffffff1673ffffffffffffffffffffffffffffffffffffffff16815260200190815260200160002060008282546115ff9190612f33565b925050819055506002600083815260200190815260200160002060006101000a81549073ffffffffffffffffffffffffffffffffffffffff021916905581600073ffffffffffffffffffffffffffffffffffffffff168273ffffffffffffffffffffffffffffffffffffffff167fddf252ad1be2c89b69c2b068fc378daa952ba7f163c4a11628f55a4df523b3ef60405160405180910390a46116a481600084611958565b5050565b8173ffffffffffffffffffffffffffffffffffffffff168373ffffffffffffffffffffffffffffffffffffffff161415611717576040517f08c379a000000000000000000000000000000000000000000000000000000000815260040161170e90612fb3565b60405180910390fd5b80600560008573ffffffffffffffffffffffffffffffffffffffff1673ffffffffffffffffffffffffffffffffffffffff16815260200190815260200160002060008473ffffffffffffffffffffffffffffffffffffffff1673ffffffffffffffffffffffffffffffffffffffff16815260200190815260200160002060006101000a81548160ff0219169083151502179055508173ffffffffffffffffffffffffffffffffffffffff168373ffffffffffffffffffffffffffffffffffffffff167f17307eab39ab6107e8899845ad3d59bd9653f200f220920489ca2b5937696c318360405161180891906121e6565b60405180910390a3505050565b61182084848461112f565b61182c84848484611a55565b61186b576040517f08c379a000000000000000000000000000000000000000000000000000000000815260040161186290613045565b60405180910390fd5b50505050565b60007f80ac58cd000000000000000000000000000000000000000000000000000000007bffffffffffffffffffffffffffffffffffffffffffffffffffffffff1916827bffffffffffffffffffffffffffffffffffffffffffffffffffffffff1916148061193c57507f5b5e139f000000000000000000000000000000000000000000000000000000007bffffffffffffffffffffffffffffffffffffffffffffffffffffffff1916827bffffffffffffffffffffffffffffffffffffffffffffffffffffffff1916145b8061194c575061194b82611bec565b5b9050919050565b505050565b505050565b6119678282610b84565b6119f65761198c8173ffffffffffffffffffffffffffffffffffffffff166014611c56565b61199a8360001c6020611c56565b6040516020016119ab929190613139565b6040516020818303038152906040526040517f08c379a00000000000000000000000000000000000000000000000000000000081526004016119ed919061229a565b60405180910390fd5b5050565b611a048383611e92565b611a116000848484611a55565b611a50576040517f08c379a0000000000000000000000000000000000000000000000000000000008152600401611a4790613045565b60405180910390fd5b505050565b6000611a768473ffffffffffffffffffffffffffffffffffffffff1661206c565b15611bdf578373ffffffffffffffffffffffffffffffffffffffff1663150b7a02611a9f610f6d565b8786866040518563ffffffff1660e01b8152600401611ac194939291906131c8565b602060405180830381600087803b158015611adb57600080fd5b505af1925050508015611b0c57506040513d601f19601f82011682018060405250810190611b099190613229565b60015b611b8f573d8060008114611b3c576040519150601f19603f3d011682016040523d82523d6000602084013e611b41565b606091505b50600081511415611b87576040517f08c379a0000000000000000000000000000000000000000000000000000000008152600401611b7e90613045565b60405180910390fd5b805181602001fd5b63150b7a0260e01b7bffffffffffffffffffffffffffffffffffffffffffffffffffffffff1916817bffffffffffffffffffffffffffffffffffffffffffffffffffffffff191614915050611be4565b600190505b949350505050565b60007f01ffc9a7000000000000000000000000000000000000000000000000000000007bffffffffffffffffffffffffffffffffffffffffffffffffffffffff1916827bffffffffffffffffffffffffffffffffffffffffffffffffffffffff1916149050919050565b606060006002836002611c699190613256565b611c739190612c29565b67ffffffffffffffff811115611c8c57611c8b61241b565b5b6040519080825280601f01601f191660200182016040528015611cbe5781602001600182028036833780820191505090505b5090507f300000000000000000000000000000000000000000000000000000000000000081600081518110611cf657611cf56132b0565b5b60200101907effffffffffffffffffffffffffffffffffffffffffffffffffffffffffffff1916908160001a9053507f780000000000000000000000000000000000000000000000000000000000000081600181518110611d5a57611d596132b0565b5b60200101907effffffffffffffffffffffffffffffffffffffffffffffffffffffffffffff1916908160001a90535060006001846002611d9a9190613256565b611da49190612c29565b90505b6001811115611e44577f3031323334353637383961626364656600000000000000000000000000000000600f861660108110611de657611de56132b0565b5b1a60f81b828281518110611dfd57611dfc6132b0565b5b60200101907effffffffffffffffffffffffffffffffffffffffffffffffffffffffffffff1916908160001a905350600485901c945080611e3d906132df565b9050611da7565b5060008414611e88576040517f08c379a0000000000000000000000000000000000000000000000000000000008152600401611e7f90613355565b60405180910390fd5b8091505092915050565b600073ffffffffffffffffffffffffffffffffffffffff168273ffffffffffffffffffffffffffffffffffffffff161415611f02576040517f08c379a0000000000000000000000000000000000000000000000000000000008152600401611ef9906133c1565b60405180910390fd5b611f0b8161102e565b15611f4b576040517f08c379a0000000000000000000000000000000000000000000000000000000008152600401611f429061342d565b60405180910390fd5b611f5760008383611953565b6001600360008473ffffffffffffffffffffffffffffffffffffffff1673ffffffffffffffffffffffffffffffffffffffff1681526020019081526020016000206000828254611fa79190612c29565b92505081905550816002600083815260200190815260200160002060006101000a81548173ffffffffffffffffffffffffffffffffffffffff021916908373ffffffffffffffffffffffffffffffffffffffff160217905550808273ffffffffffffffffffffffffffffffffffffffff16600073ffffffffffffffffffffffffffffffffffffffff167fddf252ad1be2c89b69c2b068fc378daa952ba7f163c4a11628f55a4df523b3ef60405160405180910390a461206860008383611958565b5050565b6000808273ffffffffffffffffffffffffffffffffffffffff163b119050919050565b82805461209b906128ee565b90600052602060002090601f0160209004810192826120bd5760008555612104565b82601f106120d657805160ff1916838001178555612104565b82800160010185558215612104579182015b828111156121035782518255916020019190600101906120e8565b5b5090506121119190612115565b5090565b5b8082111561212e576000816000905550600101612116565b5090565b6000604051905090565b600080fd5b600080fd5b60007fffffffff0000000000000000000000000000000000000000000000000000000082169050919050565b61217b81612146565b811461218657600080fd5b50565b60008135905061219881612172565b92915050565b6000602082840312156121b4576121b361213c565b5b60006121c284828501612189565b91505092915050565b60008115159050919050565b6121e0816121cb565b82525050565b60006020820190506121fb60008301846121d7565b92915050565b600081519050919050565b600082825260208201905092915050565b60005b8381101561223b578082015181840152602081019050612220565b8381111561224a576000848401525b50505050565b6000601f19601f8301169050919050565b600061226c82612201565b612276818561220c565b935061228681856020860161221d565b61228f81612250565b840191505092915050565b600060208201905081810360008301526122b48184612261565b905092915050565b6000819050919050565b6122cf816122bc565b81146122da57600080fd5b50565b6000813590506122ec816122c6565b92915050565b6000602082840312156123085761230761213c565b5b6000612316848285016122dd565b91505092915050565b600073ffffffffffffffffffffffffffffffffffffffff82169050919050565b600061234a8261231f565b9050919050565b61235a8161233f565b82525050565b60006020820190506123756000830184612351565b92915050565b6123848161233f565b811461238f57600080fd5b50565b6000813590506123a18161237b565b92915050565b600080604083850312156123be576123bd61213c565b5b60006123cc85828601612392565b92505060206123dd858286016122dd565b9150509250929050565b6123f0816122bc565b82525050565b600060208201905061240b60008301846123e7565b92915050565b600080fd5b600080fd5b7f4e487b7100000000000000000000000000000000000000000000000000000000600052604160045260246000fd5b61245382612250565b810181811067ffffffffffffffff821117156124725761247161241b565b5b80604052505050565b6000612485612132565b9050612491828261244a565b919050565b600067ffffffffffffffff8211156124b1576124b061241b565b5b6124ba82612250565b9050602081019050919050565b82818337600083830152505050565b60006124e96124e484612496565b61247b565b90508281526020810184848401111561250557612504612416565b5b6125108482856124c7565b509392505050565b600082601f83011261252d5761252c612411565b5b813561253d8482602086016124d6565b91505092915050565b6000806040838503121561255d5761255c61213c565b5b600061256b858286016122dd565b925050602083013567ffffffffffffffff81111561258c5761258b612141565b5b61259885828601612518565b9150509250929050565b6000806000606084860312156125bb576125ba61213c565b5b60006125c986828701612392565b93505060206125da86828701612392565b92505060406125eb868287016122dd565b9150509250925092565b6000819050919050565b612608816125f5565b811461261357600080fd5b50565b600081359050612625816125ff565b92915050565b6000602082840312156126415761264061213c565b5b600061264f84828501612616565b91505092915050565b612661816125f5565b82525050565b600060208201905061267c6000830184612658565b92915050565b600080604083850312156126995761269861213c565b5b60006126a785828601612616565b92505060206126b885828601612392565b9150509250929050565b6000602082840312156126d8576126d761213c565b5b60006126e684828501612392565b91505092915050565b6126f8816121cb565b811461270357600080fd5b50565b600081359050612715816126ef565b92915050565b600080604083850312156127325761273161213c565b5b600061274085828601612392565b925050602061275185828601612706565b9150509250929050565b600067ffffffffffffffff8211156127765761277561241b565b5b61277f82612250565b9050602081019050919050565b600061279f61279a8461275b565b61247b565b9050828152602081018484840111156127bb576127ba612416565b5b6127c68482856124c7565b509392505050565b600082601f8301126127e3576127e2612411565b5b81356127f384826020860161278c565b91505092915050565b600080600080608085870312156128165761281561213c565b5b600061282487828801612392565b945050602061283587828801612392565b9350506040612846878288016122dd565b925050606085013567ffffffffffffffff81111561286757612866612141565b5b612873878288016127ce565b91505092959194509250565b600080604083850312156128965761289561213c565b5b60006128a485828601612392565b92505060206128b585828601612392565b9150509250929050565b7f4e487b7100000000000000000000000000000000000000000000000000000000600052602260045260246000fd5b6000600282049050600182168061290657607f821691505b6020821081141561291a576129196128bf565b5b50919050565b7f4552433732313a20617070726f76616c20746f2063757272656e74206f776e6560008201527f7200000000000000000000000000000000000000000000000000000000000000602082015250565b600061297c60218361220c565b915061298782612920565b604082019050919050565b600060208201905081810360008301526129ab8161296f565b9050919050565b7f4552433732313a20617070726f76652063616c6c6572206973206e6f7420746f60008201527f6b656e206f776e6572206e6f7220617070726f76656420666f7220616c6c0000602082015250565b6000612a0e603e8361220c565b9150612a19826129b2565b604082019050919050565b60006020820190508181036000830152612a3d81612a01565b9050919050565b7f4552433732314d657461646174613a2055524920736574206f66206e6f6e657860008201527f697374656e7420746f6b656e0000000000000000000000000000000000000000602082015250565b6000612aa0602c8361220c565b9150612aab82612a44565b604082019050919050565b60006020820190508181036000830152612acf81612a93565b9050919050565b7f4552433732313a2063616c6c6572206973206e6f7420746f6b656e206f776e6560008201527f72206e6f7220617070726f766564000000000000000000000000000000000000602082015250565b6000612b32602e8361220c565b9150612b3d82612ad6565b604082019050919050565b60006020820190508181036000830152612b6181612b25565b9050919050565b7f416363657373436f6e74726f6c3a2063616e206f6e6c792072656e6f756e636560008201527f20726f6c657320666f722073656c660000000000000000000000000000000000602082015250565b6000612bc4602f8361220c565b9150612bcf82612b68565b604082019050919050565b60006020820190508181036000830152612bf381612bb7565b9050919050565b7f4e487b7100000000000000000000000000000000000000000000000000000000600052601160045260246000fd5b6000612c34826122bc565b9150612c3f836122bc565b9250827fffffffffffffffffffffffffffffffffffffffffffffffffffffffffffffffff03821115612c7457612c73612bfa565b5b828201905092915050565b7f4552433732313a20696e76616c696420746f6b656e2049440000000000000000600082015250565b6000612cb560188361220c565b9150612cc082612c7f565b602082019050919050565b60006020820190508181036000830152612ce481612ca8565b9050919050565b7f4552433732313a2061646472657373207a65726f206973206e6f74206120766160008201527f6c6964206f776e65720000000000000000000000000000000000000000000000602082015250565b6000612d4760298361220c565b9150612d5282612ceb565b604082019050919050565b60006020820190508181036000830152612d7681612d3a565b9050919050565b7f4552433732314d657461646174613a2055524920717565727920666f72206e6f60008201527f6e6578697374656e7420746f6b656e0000000000000000000000000000000000602082015250565b6000612dd9602f8361220c565b9150612de482612d7d565b604082019050919050565b60006020820190508181036000830152612e0881612dcc565b9050919050565b7f4552433732313a207472616e736665722066726f6d20696e636f72726563742060008201527f6f776e6572000000000000000000000000000000000000000000000000000000602082015250565b6000612e6b60258361220c565b9150612e7682612e0f565b604082019050919050565b60006020820190508181036000830152612e9a81612e5e565b9050919050565b7f4552433732313a207472616e7366657220746f20746865207a65726f2061646460008201527f7265737300000000000000000000000000000000000000000000000000000000602082015250565b6000612efd60248361220c565b9150612f0882612ea1565b604082019050919050565b60006020820190508181036000830152612f2c81612ef0565b9050919050565b6000612f3e826122bc565b9150612f49836122bc565b925082821015612f5c57612f5b612bfa565b5b828203905092915050565b7f4552433732313a20617070726f766520746f2063616c6c657200000000000000600082015250565b6000612f9d60198361220c565b9150612fa882612f67565b602082019050919050565b60006020820190508181036000830152612fcc81612f90565b9050919050565b7f4552433732313a207472616e7366657220746f206e6f6e20455243373231526560008201527f63656976657220696d706c656d656e7465720000000000000000000000000000602082015250565b600061302f60328361220c565b915061303a82612fd3565b604082019050919050565b6000602082019050818103600083015261305e81613022565b9050919050565b600081905092915050565b7f416363657373436f6e74726f6c3a206163636f756e7420000000000000000000600082015250565b60006130a6601783613065565b91506130b182613070565b601782019050919050565b60006130c782612201565b6130d18185613065565b93506130e181856020860161221d565b80840191505092915050565b7f206973206d697373696e6720726f6c6520000000000000000000000000000000600082015250565b6000613123601183613065565b915061312e826130ed565b601182019050919050565b600061314482613099565b915061315082856130bc565b915061315b82613116565b915061316782846130bc565b91508190509392505050565b600081519050919050565b600082825260208201905092915050565b600061319a82613173565b6131a4818561317e565b93506131b481856020860161221d565b6131bd81612250565b840191505092915050565b60006080820190506131dd6000830187612351565b6131ea6020830186612351565b6131f760408301856123e7565b8181036060830152613209818461318f565b905095945050505050565b60008151905061322381612172565b92915050565b60006020828403121561323f5761323e61213c565b5b600061324d84828501613214565b91505092915050565b6000613261826122bc565b915061326c836122bc565b9250817fffffffffffffffffffffffffffffffffffffffffffffffffffffffffffffffff04831182151516156132a5576132a4612bfa565b5b828202905092915050565b7f4e487b7100000000000000000000000000000000000000000000000000000000600052603260045260246000fd5b60006132ea826122bc565b915060008214156132fe576132fd612bfa565b5b600182039050919050565b7f537472696e67733a20686578206c656e67746820696e73756666696369656e74600082015250565b600061333f60208361220c565b915061334a82613309565b602082019050919050565b6000602082019050818103600083015261336e81613332565b9050919050565b7f4552433732313a206d696e7420746f20746865207a65726f2061646472657373600082015250565b60006133ab60208361220c565b91506133b682613375565b602082019050919050565b600060208201905081810360008301526133da8161339e565b9050919050565b7f4552433732313a20746f6b656e20616c7265616479206d696e74656400000000600082015250565b6000613417601c8361220c565b9150613422826133e1565b602082019050919050565b600060208201905081810360008301526134468161340a565b905091905056fea2646970667358221220a4fed11a41c9e86e66c9cd564226ea212c3b26976deea0bf520d67d7d942db6264736f6c63430008090033",
  "linkReferences": {},
  "deployedLinkReferences": {}
}